S01700004763634170706C69636174696F6E322E737265635A
S113000013C037C036C035C034C033C032C031C06D
S113001073C90FCA2EC02DC02CC02BC02AC029C042
S113002028C027C026C0650211241FBECFE5D4E036
S1130030DEBFCDBF10E0A0E6B0E0E6EBFFE102C01A
S113004005900D92A63AB107D9F723E0A6EAB0E0ED
S113005001C01D92A139B207E1F710E0C4E1D0E07C
S113006003C02197FE01BFDCC331D107D1F70FD202
S1130070A0CFC6CFCF93DF93CDB7DEB728970FB607
S1130080F894DEBF0FBECDBF64ED85E791E0B5D730
S113009063ED8CE691E0B1D741EC62EC8AE691E045
S11300A00CD888E0E5E6F0E0DE01119601900D92AF
S11300B08A95E1F7BE016F5F7F4F82E691E00ED231
S11300C0CBD340E054E264EF70E080E895E2CFD215
S11300D028960FB6F894DEBF0FBECDBFDF91CF9147
S11300E008952F923F924F925F926F927F928F92D8
S11300F09F92AF92BF92CF92DF92EF92FF920F93B3
S11301001F93CF93DF93CDB7DEB7A8970FB6F894BC
S1130110DEBF0FBECDBF94D3D3D400E010E09DE684
S1130120492E90E0592ECE0101966C01602F85E78F
S113013091E078D7C80163E070E0E8DB3B0191E02F
S113014069227724E12CF12C6114710439F084EBD9
S113015090E08E199F09382E292E02C03E2C2F2C98
S1130160632D8CE691E05ED78AE0882E912CA12C39
S1130170B12C8AE691E0ADD7A80EB91E81E0881AA9
S11301809108B9F7C5016AE070E0ACDB7F936F9327
S11301902F923F921F930F935F924F92DF92CF92D1
S11301A028DCF60101900020E9F73197BF016C19B2
S11301B07D09C60178D28FE39CE90197F1F700C06D
S11301C0000093E0E90EF11C0FB6F894DEBF0FBEF9
S11301D0CDBF97EBE916F10409F0B6CF0D5F1F4FC1
S11301E0073B110509F0A2CFA8960FB6F894DEBF1D
S11301F00FBECDBFDF91CF911F910F91FF90EF9074
S1130200DF90CF90BF90AF909F908F907F906F9032
S11302105F904F903F902F9008956F927F928F92AE
S11302209F92AF92BF92CF92DF92EF92FF920F9381
S11302301F93CF93DF9304D341E060E080E248D47E
S11302403FD4C0E0D0E094E1E92EF12C6C2F85E797
S113025091E0E8D684E1C82ED12C00E010E08AE6D3
S113026091E037D7080F191F21E0C21AD108B9F756
S1130270C801B70137DBCB018E010E7FF801E655CB
S1130280FF4F718360836091600170916101681711
S1130290790708F4BC01709361016093600180E008
S11302A090E00BDA9B01AC0160E070E088EF91E430
S11302B070D95B016C016090600070906100809067
S11302C06200909063009301A4015FD987FD02C08E
S11302D053016401C501D6018093600090936100CD
S11302E0A0936200B09363002091A6003091A70010
S11302F04091A8005091A900B501C60146D98823B0
S113030009F44DC09DD241E060E080E2E1D300E019
S113031010E0C80194D54B015C01C8018E7FFC013B
S1130320E655FF4F6F016081718180E090E0C5D98F
S1130330A501940174DA209160003091610040912C
S11303406200509163006BDA8CD9762EC801D1D546
S11303504B015C01F6016081718180E090E0ADD9D0
S1130360A50194015CDA2091600030916100409114
S113037062005091630053DA9B01AC0160E070E0CD
S113038080E092E49DD86DD9862F41E0672DA0D3FB
S11303900E5F1F4FC017D1070CF0BBCF3CC0CE017E
S11303A04ED54B015C0106551F4FF80160817181E8
S11303B080E090E082D9A501940131DA20916000B7
S11303C030916100409162005091630028DA49D96C
S11303D0D62ECE018ED54B015C01F801608171816E
S11303E080E090E06AD9A501940119DA20916000B7
S11303F030916100409162005091630010DA9B01DA
S1130400AC0160E070E080E092E45AD82AD9862FEB
S113041041E06D2D5DD354D38091600090916100D3
S1130420A0916200B09163008093A6009093A7000E
S1130430A093A800B093A9008FE39CE90197F1F77A
S113044000C000002296C63BD10509F0FFCEDF9123
S1130450CF911F910F91FF90EF90DF90CF90BF90BD
S1130460AF909F908F907F906F9008950F93E8D1F5
S113047001E029E041E950E064E084E02AD329E086
S11304804BE950E060E184E024D30F9119C3F2DD1D
S1130490EDDF60E085E791E0C5D560E08CE691E0B2
S11304A0C1D582E691E044D090E00097D1F3813049
S11304B0910539F4B2DE82E691E03AD08823D9F38B
S11304C0E7CF029729F70DDEE3CF85E791E090D5DA
S11304D08CE691E08DD58AE691E0EAC5EF92FF9231
S11304E00F931F93CF93DF938B017B0128E0E20EE0
S11304F0F11CFB012191DC012D93CD01EE15FF05CB
S1130500C9F7EB01249660E0F80181918F01C1D312
S11305100C171D07C1F761E08991BBD3CE15DF0528
S1130520D1F7DF91CF911F910F91FF90EF90089534
S11305306F927F928F929F92AF92BF92CF92DF92EF
S1130540EF92FF920F931F93CF93DF936C01EC0113
S11305508C01085F1F4F61E08991E3D3C017D10775
S1130560D1F7360184E0680E711C5301C0E0D0E07D
S113057084E0E82EF12CF601EE0DFF1D61E0808190
S1130580D0D37E01E4E0EE0EF11C60E0F501819130
S11305905F01C7D3FAE0FA95F1F700C0430101E027
S11305A010E0F40182914F0104D4811105C08C2F15
S11305B0880F880F800F0EC00F5F1F4F0530110585
S11305C081F72196C430D10521F0C130D10599F6C7
S11305D0CFCF80E0DF91CF911F910F91FF90EF90EB
S11305E0DF90CF90BF90AF909F908F907F906F904F
S11305F008958032C1F190ED980F9A3078F4282F45
S113060030E02053310946E0429FC001439F900DE2
S11306101124860F911D805090401CC0813689F0B2
S113062038F48434C1F4862F90E0845C9F4F12C068
S1130630843661F0823779F4862F90E0825B9F4F95
S113064009C0862F90E08E5B9F4F04C0862F90E0F8
S1130650885B9F4F6FCC643020F4613030F081E4CC
S11306600895643011F080E008958FE70895FC0147
S113067020E820BD19B8CB01BA0124E096958795EE
S1130680779567952A95D1F79F0140E050E051D9BD
S1130690215029B988E18AB986E880BD08955D9B17
S11306A0FECF8CB90895EF92FF920F931F93CF93CF
S11306B0DF938C017B01EC01CE01801B910B8E1525
S11306C09F051CF48991EBDFF7CFDF91CF911F9148
S11306D00F91FF90EF900895CF93C82FD5D688E758
S11306E0E2D680E4E0D68C2FDED6CF91D9C6CF9364
S11306F0C82FCAD688E7D7D680E0D5D68C2FD3D6D4
S1130700CF91CEC6CF93C82F862F87708055EFDF49
S11307108C2F8F7782958F708061E9DF8C2F8F709B
S1130720CF91E5CFCF93DF93C0EB8C2FE0DF80E058
S1130730DEDF80E1DCDFD1E880E0CEDFD150E1F71D
S1130740CF5FC83B91F7DF91CF910895CF93DF93AB
S1130750E9DFC0EB8C2FCBDF80E0C9DF81E1C7DFAD
S1130760D1E880E0B9DFD150E1F7CF5FC83B91F722
S1130770DF91CF91089582D62FEF89E698E1215039
S113078080409040E1F700C000008EEAB0DF80E0D6
S1130790AEDF80E1ACDF80E4AADF81E8A8DF8FEC84
S11307A0A6DF81EAA4DF88ECA2DF86EAA0DF88EA7C
S11307B09EDF8FE39CDF83ED9ADF80E098DF85ED99
S11307C096DF80E894DF89ED92DF81EF90DF8AED98
S11307D08EDF82E18CDF8BED8ADF80E488DF80E2CC
S11307E086DF82E084DF8DE882DF84E180DF8FEAC8
S11307F07EDFACDF60E080E085CF803400F56032DE
S1130800F0F4E82FF0E0862F86958695869567703C
S1130810EE0FFF1FEE0FFF1FE258FD4FE80FF11D13
S113082081E090E001C0880F6A95EAF7411104C0A5
S113083080959081892302C09081892B80830895BB
S1130840EEE7F2E01082118212821382349683E082
S1130850EE37F807B9F708958EDFF2DFEEE7F1E03F
S11308601082118212821382349682E0EE37F807E6
S1130870B9F70895EF92FF920F931F93CF93DF93ED
S113088004E0809FC0011124FC01E258FD4FE60FF3
S1130890F11DA081B0E0C1E0D0E0E4E0F0E060E070
S11308A070E010E0411102C0862F01C08E2F262F68
S11308B07D0102C0F594E7948A95E2F7C70181703F
S11308C099277B01EE0CFF1C01C0880FEA94EAF71C
S11308D0812B41112E2F8D0102C0159507952A9564
S11308E0E2F79801217033270C2E01C0220F0A94DD
S11308F0EAF7182F122B6F5F7F4F319622966430E0
S1130900710581F6812FE8DE812FDF91CF911F9150
S11309100F91FF90EF90E0CEAF92BF92CF92DF9213
S1130920EF92FF920F931F93CF93DF936C01162FD7
S1130930042FE62EEE0CE40EC0E0D0E0F601EC0F3E
S1130940FD1F8081882339F16E2DCE010196880F19
S1130950D9DE402F612F8C2F8DDF5601AC0EBD1ECA
S1130960F50180818330B8F4FC2EF394F501808185
S11309709E01280F311DC9012F2D30E082179307E6
S113098010F4EC01EACF3FE3F316D9F3402F612FC3
S11309908F2D70DFEACF2196CF33D10578F2F6019F
S11309A087AD8823C1F086AD811107C06E2D8EE717
S11309B0A9DE402F612F8EE35DDF402F612F8FE38F
S11309C0DF91CF911F910F91FF90EF90DF90CF9027
S11309D0BF90AF904FCFDF91CF911F910F91FF90B8
S11309E0EF90DF90CF90BF90AF900895AF92BF92F9
S11309F0DF92EF92FF920F931F93CF93DF93CDB7C4
S1130A00DEB7C054D1090FB6F894DEBF0FBECDBF18
S1130A10D82ECE0101967C0180E4D7011D928A95DF
S1130A20E9F70D2D10E0980122583D4FF801E258E6
S1130A30FE4F5F01F7019FEF80E04FEFD9016C910A
S1130A40D5015C91651759F04083B701690F711D99
S1130A50B82FB91B9B2FDB019C93982F01C01082E8
S1130A608F5F2C5F3F4FB4E0AB0EB11C31968034E6
S1130A7029F740E06D2DC7014FDF41E06D2DC7011F
S1130A804BDFD801A258BD4FF801E258FE4F80E475
S1130A909C9190838150149634968111F9CFC05C57
S1130AA0DF4F0FB6F894DEBF0FBECDBFDF91CF91FD
S1130AB01F910F91FF90EF90DF90BF90AF9008953A
S1130AC080E094DF81E092DF82E090DF83E08ECFEC
S1130AD094CE2F923F924F925F926F927F928F9219
S1130AE09F92AF92BF92CF92DF92EF92FF920F93B9
S1130AF01F93CF93DF93CDB7DEB729970FB6F89442
S1130B00DEBF0FBECDBF1A01422E0B83062F069502
S1130B1006950695C02ED12C36012FEF621A720A63
S1130B20A82EB12CF60124E0829FE00DF11D1124C2
S1130B30812C912C512C3196FF83EE83162F177044
S1130B4088E090E09C01211B31093A8329835414E5
S1130B5009F472C08E819F81880D991D82589D4F22
S1130B6099878887E12CF12CF101E50DF11DFD83B6
S1130B70EC83C5018E0D9F1D803491050CF05CC083
S1130B806E2DEC81FD81808134DD2885398526191F
S1130B90370990E0FB81FF23D9F0F901EC0DFD1D2D
S1130BA02081AC01012E01C0440F0A94EAF7422BC4
S1130BB04083112359F10F3149F1098002C0959501
S1130BC087950A94E2F7E885F9859081892B1DC001
S1130BD0F901EC0DFD1DAC01012E01C0440F0A9476
S1130BE0EAF74095508145234083112379F00F3172
S1130BF069F0F901E60DF71D098002C09595879506
S1130C000A94E2F78095908189238083FFEFEF1A9D
S1130C10FF0A288539852C5F3F4F3987288736E0BE
S1130C20E316F10409F0A5CF539448E1840E911C16
S1130C3086E0A80EB11C8BCF29960FB6F894DEBFC0
S1130C400FBECDBFDF91CF911F910F91FF90EF9019
S1130C50DF90CF90BF90AF909F908F907F906F90D8
S1130C605F904F903F902F900895982F80E5890FC3
S1130C70883068F080E4890F873048F080E3890F7A
S1130C80883028F081E0973C19F080E0089581E0F5
S1130C900895CF93DF93C82FD62FE7DF8823F1F190
S1130CA08C2F90E024E0959587952A95E1F78C3078
S1130CB09105A9F08D30910511F10B9779F5CF705D
S1130CC027B381E090E001C0880FCA95EAF7DD23DD
S1130CD011F0822B02C08095822387BB1FC0CF7086
S1130CE024B381E090E001C0880FCA95EAF7DD23C0
S1130CF011F0822B02C08095822384BB0FC0CF7079
S1130D0021B381E090E001C0880FCA95EAF7DD23A2
S1130D1011F0822B02C08095822381BBDF91CF9199
S1130D200895CF93DF93C82FD62F9FDF8823F1F147
S1130D308C2F90E024E0959587952A95E1F78C30E7
S1130D409105A9F08D30910511F10B9779F5CF70CC
S1130D5028B381E090E001C0880FCA95EAF7DD234B
S1130D6011F0822B02C08095822388BB1FC0CF70F4
S1130D7025B381E090E001C0880FCA95EAF7DD232E
S1130D8011F0822B02C08095822385BB0FC0CF70E7
S1130D9022B381E090E001C0880FCA95EAF7DD2311
S1130DA011F0822B02C08095822382BBDF91CF9108
S1130DB00895CF93C82F59DF8823F1F08C2F90E04A
S1130DC024E0959587952A95E1F78C30910539F0C3
S1130DD08D30910531F00B9771F486B303C083B362
S1130DE001C080B390E0CF7002C095958795CA95F5
S1130DF0E2F7817001C080E0CF9108958C3069F0F2
S1130E008D30A1F08B30D1F488B3442311F0682BDA
S1130E1002C06095682368BB089585B3442311F02C
S1130E20682B02C06095682365BB089582B3442390
S1130E3011F0682B02C06095682362BB0895CF92BD
S1130E40DF92EF92FF920F931F93CF93DF9300D023
S1130E5000D0CDB7DEB724EB30E08B35910500F53B
S1130E608C01000F111F000F111FAE014F5F5F4F68
S1130E706A01E12CF12CC701800F911F8C5A9F4FFE
S1130E8059D8F60181936F01FFEFEF1AFF0A44E08E
S1130E90E416F10481F769817A818B819C811CC0FD
S1130EA097FF04C091958195910905C0843B9105F4
S1130EB02CF0845B9109C3DF90580EC0AC014B55F4
S1130EC051094935510528F4F901E81BF90BCF0103
S1130ED0C4CF60E070E0CB010F900F900F900F90A3
S1130EE0DF91CF911F910F91FF90EF90DF90CF9002
S1130EF00895865A9F4FA3CFCF92DF92EF92FF922D
S1130F00809181038F5F8093810380917E03E091C0
S1130F107F03F0918003811127C0648175818681EC
S1130F2097816B017C0134E0CC0CDD1CEE1CFF1CB2
S1130F303A95D1F743E0F694E794D794C7944A9549
S1130F40D1F79601209530953DBD2CBD48E0C1D127
S1130F50E0917F03F091800341E0638182814EDF61
S1130F6081E080937E033FC0C480D580E680F78013
S1130F70A0EFBFEFA701960132D5DC01CB019E5152
S1130F80AB4FBF4F23E0B695A795979587952A95C4
S1130F90D1F7BC01609570957DBD6CBD80E29EE487
S1130FA0A0E0B0E0BC01CD016C197D098E099F0958
S1130FB048E08FD1E0917F03F091800340E06381AA
S1130FC082811CDF10927E03E0917F03F091800305
S1130FD0908580918103891730F089D11092810323
S1130FE081E080936400FF90EF90DF90CF900895AC
S1130FF02FEFFC01208321830895FC01862F608359
S1131000262F30E094E0359527959A95E1F72283D1
S1131010262F2F7091E001C0990F2A95EAF7938348
S113102061E037CE1F93CF93DF93EC01162F7894B2
S113103080916400811104C060E087EC72DEF8CF17
S113104010926400D0938003C0937F03212F30E07B
S11310508981A901481B510957FF03C05195419546
S1131060510968E2649FC001659F900D112464EBEF
S113107070E04CD4665F68871983ABE0B0E097D426
S1131080DC01CB018C509E4FAF4FBF4F8C839D83AF
S1131090AE83BF8328E030E04CE757E064E670E0BD
S11310A080E090E072D081E0DF91CF911F910895AC
S11310B02FEFFC01218320830895CF93FC01862F19
S11310C0C42F6083418360E0E4DD61E08C2FCF9125
S11310D0E0CDCF92DF92EF92FF920F931F93CF93C5
S11310E0DF93EC018881C1DD882321F08981BDDD96
S11310F0811103C080E090E03FC061E0898111DE8E
S11311003AE63A95F1F700C060E089810ADE09E227
S113111013E288814EDE811103C001501109C9F721
S113112032D1811107C088E090E030D1C12CD12C9C
S1131130760103C05ED16B017C0188813ADE8111A6
S1131140FCCF57D19B01AC012C193D094E095F0915
S113115069017A0180E090E019D1C701B601ADD2EE
S113116020E030E048EC52E414D22AE939E949E8B5
S113117051E455D376D2CB01DF91CF911F910F91DA
S1131180FF90EF90DF90CF900895CF92DF92EF928F
S1131190FF92CF93DF936B017C01EA0116161706C9
S11311A0180619060CF085C02115310529F0309375
S11311B08E0320938D0339C061157105814091051B
S11311C01CF481E090E02DC089EFC8168FEFD8069B
S11311D087E0E806F1041CF488E090E022C021ECEA
S11311E0C2162FEFD2062FE3E206F1041CF480E4CA
S11311F090E017C081E0C8168FEFD806E806F10426
S11312001CF480E091E00DC021E0C2162CEFD20660
S11312102FEFE20623E0F20614F080E053C080E0F2
S113122094E090938E0380938D0380918D0390912D
S11312308E038130910511F481E014C0883091054A
S113124011F482E00FC08034910511F483E00AC0E8
S1131250811521E0920711F484E004C081159440C3
S1131260E1F685E08EBDC701B60124E0660F771F65
S1131270881F991F2A95D1F720918D0330918E03F1
S113128040E050E078D3209530953DBD2CBD89B722
S1131290846089BF7894D0939003C0938F03C092E5
S11312A08903D0928A03E0928B03F0928C0381E04D
S11312B009C0C12CD12C7601C3942115310509F044
S11312C076CF7FCFDF91CF91FF90EF90DF90CF90DB
S11312D008956093890370938A0380938B0390939A
S11312E08C0350E050938E0340938D030895F8943B
S11312F089B78B7F89BF08951F920F920FB60F9203
S113130011242F933F934F935F936F937F938F9306
S11313109F93AF93BF93EF93FF93809188038823A8
S1131320E1F08091890390918A03A0918B03B0919D
S11313308C03BC01CD0124E0660F771F881F991F21
S11313402A95D1F720918D0330918E0340E050E02F
S113135012D3209530953DBD2CBDE0918F03F091C3
S113136090030995FF91EF91BF91AF919F918F9158
S11313707F916F915F914F913F912F910F900FBE8D
S11313800F901F90189589B781700895009729F4DC
S113139013BE89B78E7F89BF089590938703809386
S11313A086038130910511F481E014C088309105E1
S11313B011F482E00FC08034910511F483E00AC077
S11313C0811521E0920711F484E004C08115944052
S11313D079F485E083BF1092820310928303109204
S11313E084031092850312BE89B7816089BF789403
S11313F0089582B7409182035091830360918403DE
S113140070918503762F652F542F44279A01AB01E1
S1131410280F311D411D511DA0918603B0918703F2
S1131420D2D224E096958795779567952A95D1F73A
S113143008951F920F920FB60F9211248F939F93CA
S1131440AF93BF938091820390918303A09184030F
S1131450B09185030196A11DB11D809382039093E1
S11314608303A0938403B0938503BF91AF919F91AD
S11314708F910F900FBE0F901F90189511B882E0B6
S113148080B984E086BF089584EA86BF06B607FE65
S1131490FDCF91B1987F81E0983009F080E0089504
S11314A084E986BF089583B984E886BF06B607FE3B
S11314B0FDCF91B1987F81E0983109F080E00895E3
S11314C05058BB27AA270ED070C161D130F066D125
S11314D020F031F49F3F11F41EF456C10EF4E09550
S11314E0E7FB4CC1E92F72D180F3BA176207730787
S11314F08407950718F071F49EF58AC10EF4E095FF
S11315000B2EBA2FA02D0B01B90190010C01CA01B9
S1131510A0011124FF27591B99F0593F50F4503E64
S113152068F11A16F040A22F232F342F4427585F56
S1131530F3CF469537952795A795F0405395C9F76E
S11315407EF41F16BA0B620B730B840BBAF0915026
S1131550A1F0FF0FBB1F661F771F881FC2F70EC0C5
S1131560BA0F621F731F841F48F487957795679598
S1131570B795F7959E3F08F0B3CF9395880F08F081
S11315809927EE0F979587950895D4D008F481E0B4
S113159008950CD00AC102D140F0F9D030F021F402
S11315A05F3F19F0EBC0511134C1EEC00FD198F375
S11315B09923C9F35523B1F3951B550BBB27AA27D0
S11315C062177307840738F09F5F5F4F220F331F42
S11315D0441FAA1FA9F333D00E2E3AF0E0E830D00E
S11315E091505040E695001CCAF729D0FE2F27D011
S11315F0660F771F881FBB1F261737074807AB07DF
S1131600B0E809F0BB0B802DBF01FF2793585F4F53
S11316102AF09E3F510568F0B1C0FBC05F3FECF378
S1131620983EDCF3869577956795B795F7959F5F18
S1131630C9F7880F911D9695879597F90895E1E06C
S1131640660F771F881FBB1F621773078407BA07CB
S113165020F0621B730B840BBA0BEE1F88F7E09526
S11316600895BCD088F09F5790F0B92F9927B751AF
S1131670A0F0D1F0660F771F881F991F1AF0BA9552
S1131680C9F712C0B13081F0C3D0B1E00895C0C031
S1131690672F782F8827B85F39F0B93FCCF3869548
S11316A077956795B395D9F73EF4909580957095A5
S11316B061957F4F8F4F9F4F0895E89409C097FB22
S11316C03EF490958095709561957F4F8F4F9F4F15
S11316D09923A9F0F92F96E9BB279395F695879559
S11316E077956795B795F111F8CFFAF4BB0F11F41C
S11316F060FF1BC06F5F7F4F8F4F9F4F16C08823C3
S113170011F096E911C0772321F09EE8872F762FF8
S113171005C0662371F096E8862F70E060E02AF039
S11317209A95660F771F881FDAF7880F9695879525
S113173097F90895990F0008550FAA0BE0E8FEEFFA
S113174016161706E807F907C0F012161306E40781
S1131750F50798F0621B730B840B950B39F40A267A
S113176061F0232B242B252B21F408950A2609F458
S1131770A140A6958FEF811D811D089597F99F675C
S113178080E870E060E008959FEF80EC0895002405
S11317900A941616170618060906089500240A94D2
S11317A012161306140605060895092E0394000C58
S11317B011F4882352F0BB0F40F4BF2B11F460FFE7
S11317C004C06F5F7F4F8F4F9F4F089557FD905810
S11317D0440F551F59F05F3F71F04795880F97FBF1
S11317E0991F61F09F3F79F08795089512161306AB
S11317F01406551FF2CF4695F1DF08C016161706DA
S11318001806991FF1CF869571056105089408950E
S1131810E894BB2766277727CB0197F908950BD067
S1131820C4CFB5DF28F0BADF18F0952309F0A6CFAE
S1131830ABCF1124EECFCADFA0F3959FD1F3950F60
S113184050E0551F629FF001729FBB27F00DB11D40
S1131850639FAA27F00DB11DAA1F649F6627B00DD0
S1131860A11D661F829F2227B00DA11D621F739FB9
S1131870B00DA11D621F839FA00D611D221F749FC7
S11318803327A00D611D231F849F600D211D822F0E
S1131890762F6A2F11249F5750408AF0E1F0882355
S11318A04AF0EE0FFF1FBB1F661F771F881F915062
S11318B05040A9F79E3F510570F060CFAACF5F3F1B
S11318C0ECF3983EDCF3869577956795B795F79595
S11318D0E7959F5FC1F7FE2B880F911D969587951D
S11318E097F90895AA1BBB1B51E107C0AA1FBB1F90
S11318F0A617B70710F0A61BB70B881F991F5A9598
S1131900A9F780959095BC01CD01089597FB072E0A
S113191016F4009406D077FD08D0E4DF07FC05D068
S11319203EF4909581959F4F0895709561957F4FF2
S11319300895A1E21A2EAA1BBB1BFD010DC0AA1F0C
S1131940BB1FEE1FFF1FA217B307E407F50720F024
S1131950A21BB30BE40BF50B661F771F881F991F9F
S11319601A9469F760957095809590959B01AC01E8
S1131970BD01CF010895052E97FB16F400940FD0F6
S113198057FD05D0D6DF07FC02D046F408C05095B9
S11319904095309521953F4F4F4F5F4F0895909557
S11319A08095709561957F4F8F4F9F4F0895A29FAB
S11319B0B001B39FC001A39F01D0B29F700D811DE0
S11319C01124911D0895F3DFA59F900DB49F900DF0
S11319D0A49F800D911D11240895B7FFF4CFF3DF68
S11319E0821B930B0895EE0FFF1F0590F491E02DD9
S11319F00994AEE0B0E0EEEFFCE0B2C20D891E89BE
S1131A0086E08C831A8309838FEF9FE79E838D83FF
S1131A10AE01475E5F4F6F89788DCE01019608D085
S1131A20EF81F885E00FF11F10822E96E4E0B4C236
S1131A30ABE0B0E0EDE1FDE085C26C017B018A0121
S1131A40FC0117821682838181FFBFC1CE010196FA
S1131A503C01F6019381F70193FD859193FF8191F8
S1131A607F01882309F4ADC1853239F493FD859152
S1131A7093FF81917F01853221F4B60190E0C0D1BA
S1131A80E8CF912C212C312CFFE1F315D8F08B32C7
S1131A9079F038F4803279F08332A1F4232D206177
S1131AA01DC08D3261F0803369F4232D216016C08E
S1131AB0832D8260382EE32DE4603E2E2AC0F32D60
S1131AC0F8601DC037FC2DC020ED280F2A3040F0EF
S1131AD08E32B9F436FC75C1232D2064322E19C020
S1131AE036FE06C08AE0989E200D1124922E11C065
S1131AF0EAE02E9E200D1124222EF32DF0623F2EBB
S1131B0008C08C3621F4832D8068382E02C08836B4
S1131B1041F4F70193FD859193FF81917F01811138
S1131B20B3CF982F9F7D9554933028F40C5F1F4FAB
S1131B309FE399830DC0833631F0833771F0833589
S1131B4009F055C020C0F801808189830E5F1F4FC2
S1131B5088248394912C530112C02801F2E04F0E83
S1131B60511CF801A080B18036FE03C0692D70E0DD
S1131B7002C06FEF7FEFC50138D14C018201F32D14
S1131B80FF773F2E15C0280122E0420E511CF801B8
S1131B90A080B18036FE03C0692D70E002C06FEFF3
S1131BA07FEFC50117D14C01F32DF0683F2E820160
S1131BB033FC19C0822D90E088169906A0F4B60172
S1131BC080E290E01DD12A94F5CFF50137FC859190
S1131BD037FE81915F01B60190E012D121102A9461
S1131BE021E0821A91088114910479F7E1C08436C6
S1131BF011F0893639F5F80137FE07C0608171812B
S1131C00828193810C5F1F4F08C060817181072E10
S1131C10000C880B990B0E5F1F4FF32DFF763F2EA0
S1131C2097FF09C090958095709561957F4F8F4F70
S1131C309F4FF0683F2E2AE030E0A3011DD1882E8B
S1131C40861844C0853731F4232D2F7EB22E2AE026
S1131C5030E025C0932D997FB92E8F36C1F018F44A
S1131C60883579F0AEC0803719F0883721F0A9C0E3
S1131C70E92FE061BE2EB4FE0DC0FB2DF460BF2E33
S1131C8009C034FE0AC0292F2660B22E06C028E0FF
S1131C9030E005C020E130E002C020E132E0F8018C
S1131CA0B7FE07C060817181828193810C5F1F4FF1
S1131CB006C06081718180E090E00E5F1F4FA30138
S1131CC0DBD0882E8618FB2DFF773F2E36FE0DC005
S1131CD0232D2E7FA22E891458F434FE0BC032FC1F
S1131CE009C0832D8E7EA82E05C0B82CA32C03C05A
S1131CF0B82C01C0B92CA4FE0FC0FE01E80DF11DE3
S1131D008081803321F49A2D997EA92E09C0A2FEE8
S1131D1006C0B394B39404C08A2D867809F0B394B2
S1131D20A3FC10C0A0FE06C0B21480F4280C922CB0
S1131D309B180DC0B21458F4B60180E290E060D054
S1131D40B394F8CFB21418F42B1802C0982C212C99
S1131D50A4FE0FC0B60180E390E052D0A2FE16C0EC
S1131D60A1FC03C088E790E002C088E590E0B601DA
S1131D700CC08A2D867851F0A1FE02C08BE201C00E
S1131D8080E2A7FC8DE2B60190E03AD0891430F4E9
S1131D90B60180E390E034D09A94F8CF8A94F301AA
S1131DA0E80DF11D8081B60190E02AD08110F6CFB4
S1131DB0222009F44ECEB60180E290E021D02A948C
S1131DC0F7CFF6018681978102C08FEF9FEF2B96A4
S1131DD0E2E1D4C0FC010590615070400110D8F7D5
S1131DE0809590958E0F9F1F0895FC01615070405F
S1131DF001900110D8F7809590958E0F9F1F08953C
S1131E000F931F93CF93DF93FB01238121FD03C025
S1131E108FEF9FEF2CC022FF16C04681578124818B
S1131E2035814217530744F4A081B1819D012F5F8E
S1131E303F4F318320838C93268137812F5F3F4F1F
S1131E403783268314C08B01EC01FB010084F185E8
S1131E50E02D0995892BE1F6D80116968D919C9178
S1131E601797019617969C938E931697CE01DF9140
S1131E70CF911F910F910895FA01AA27283051F1AB
S1131E80203181F1E8946F936E7F6E5F7F4F8F4FA7
S1131E909F4FAF4FB1E03ED0B4E03CD0670F781F06
S1131EA0891F9A1FA11D680F791F8A1F911DA11DEB
S1131EB06A0F711D811D911DA11D20D009F4689424
S1131EC03F912AE0269F11243019305D3193DEF6CC
S1131ED0CF010895462F4770405D4193B3E00FD082
S1131EE0C9F7F6CF462F4F70405D4A3318F0495D6D
S1131EF031FD4052419302D0A9F7EACFB4E0A69550
S1131F009795879577956795BA95C9F70097610571
S1131F10710508959B01AC010A2E069457954795C7
S1131F2037952795BA95C9F7620F731F841F951FBC
S1131F30A01D0895E199FECF9FBB8EBBE09A99271F
S1131F408DB308952F923F924F925F926F927F923A
S1131F508F929F92AF92BF92CF92DF92EF92FF92B5
S1131F600F931F93CF93DF93CDB7DEB7CA1BDB0B61
S1131F700FB6F894DEBF0FBECDBF09942A88398806
S1131F8048885F846E847D848C849B84AA84B9840D
S1131F90C884DF80EE80FD800C811B81AA81B98119
S1131FA0CE0FD11D0FB6F894DEBF0FBECDBFED012D
S1091FB00895F894FFCF30
S1131FB60000C84201B4B3B2B1D5D6D7B07B5B44F6
S1131FC641545D28647374296465677A3A25643BD1
S1131FD6646567723A25643B646973743A25647D63
S1131FE600312032447261646172003220334472DB
S1091FF661646172000049
S9030000FC
